:020000040800F2
:1000000000000220D16B00081D6B00081F6B000868
:10001000216B0008236B0008256B0008000000001E
:10002000000000000000000000000000276B000836
:10003000296B0008000000002B6B00082D6B0008E6
:10004000216C0008216C0008216C0008216C00085C
:10005000216C0008216C0008216C0008216C00084C
:10006000216C0008216C0008216C0008216C00083C
:10007000216C0008216C0008216C0008216C00082C
:10008000216C0008216C0008216C0008216C00081C
:10009000216C0008216C0008216C0008216C00080C
:1000A000216C0008216C0008216C0008216C0008FC
:1000B000216C0008216C0008216C0008216C0008EC
:1000C000216C0008216C0008216C0008216C0008DC
:1000D000216C0008216C0008216C0008216C0008CC
:1000E000216C0008216C0008216C0008216C0008BC
:1000F000216C0008216C0008216C0008216C0008AC
:10010000216C0008216C0008216C0008216C00089B
:10011000216C0008216C0008216C0008216C00088B
:10012000216C0008216C0008216C0008216C00087B
:10013000216C0008216C0008216C0008216C00086B
:10014000216C0008216C0008216C0008216C00085B
:10015000216C0008216C0008216C0008216C00084B
:10016000216C0008216C0008216C0008216C00083B
:10017000216C0008216C0008216C000800000000C0
:08018000216C0008216C00084D
:1001900010B5054C237833B9044B13B10448AFF3C1
:1001A00000800123237010BD7400002000000000B7
:1001B000A07A000808B5034B1BB103490348AFF30D
:1001C000008008BD0000000078000020A07A000830
:1001D00001F0FF01102A2BDB10F0070F08D010F8F8
:1001E000013B013A8B422DD010F0070F42B3F6D1FC
:1001F000F0B441EA012141EA014122F007047FF015
:1002000000070023F0E80256083C85EA010586EA6B
:10021000010685FA47F5A3FA87F586FA47F6A5FAA7
:1002200087F68EB9EED1F0BC01F0FF0102F00702B3
:1002300032B110F8013B013A83EA010313B1F8D15E
:100240000020704701387047002D06BF354603383F
:10025000073815F0010F07D1013015F4807F02BF78
:10026000013015F4C03F0130F0BC0138704700BFC9
:1002700053B94AB9002908BF00281CBF4FF0FF310D
:100280004FF0FF3000F07AB9ADF1080C6DE904CE03
:1002900000F006F8DDF804E0DDE9022304B0704761
:1002A0002DE9F0478C460D460446089E002B51D19F
:1002B0008A4217466DD9B2FA82FEBEF1000F0BD00A
:1002C000CEF1200C01FA0EF520FA0CFC02FA0EF722
:1002D0004CEA050C00FA0EF44FEA174A250CBCFB59
:1002E000FAF81FFA87F90AFB18CC45EA0C4508FB17
:1002F00009F3AB420AD9ED1908F1FF3280F02381EE
:10030000AB4240F22081A8F102083D44ED1AA4B2AC
:10031000B5FBFAF00AFB105544EA054400FB09F965
:10032000A14509D9E41900F1FF3380F00A81A14504
:1003300040F2078102383C44A4EB090440EA08403B
:100340000021002E61D024FA0EF400233460736083
:10035000BDE8F0878B4207D9002E54D0002186E8F3
:1003600021000846BDE8F087B3FA83F1002940F088
:100370008E80AB4202D3824200F2FA80841A65EB8F
:1003800003050120AC46002E3FD086E81010BDE8E2
:10039000F08712B90127B7FBF2F7B7FA87FEBEF173
:1003A000000F34D1EB1B3A0C1FFA87FC0121B3FB81
:1003B000F2F8250C02FB183345EA03450CFB08F361
:1003C000AB4207D9ED1908F1FF3002D2AB4200F27F
:1003D000D1808046ED1AA3B2B5FBF2F002FB1055B6
:1003E00043EA05440CFB00FCA44507D9E41900F1DD
:1003F000FF3302D2A44500F2B8801846A4EB0C04E7
:1004000040EA08409DE731463046BDE8F087CEF12E
:10041000200405FA0EF307FA0EF720FA04F83A0C56
:1004200025FA04F448EA0308B4FBF2F14FEA184550
:1004300002FB11441FFA87FC45EA044501FB0CF35B
:10044000AB4200FA0EF409D9ED1901F1FF3080F04A
:100450008A80AB4240F2878002393D44EB1A1FFA92
:1004600088F5B3FBF2F002FB103345EA034500FBCD
:100470000CF3AB4207D9ED1900F1FF386FD2AB4254
:100480006DD902383D44EB1A40EA01418FE7C1F1D2
:10049000200722FA07F88B4005FA01F448EA030323
:1004A00020FA07FE4FEA134CFD404EEA040EB5FB5E
:1004B000FCF94FEA1E440CFB19551FFA83F844EA75
:1004C000054509FB08F4AC4202FA01F200FA01FA10
:1004D00008D9ED1809F1FF3043D2AC4241D9A9F156
:1004E00002091D442D1B1FFA8EFEB5FBFCF00CFB10
:1004F00010554EEA054400FB08F8A04507D9E4185A
:1005000000F1FF3529D2A04527D902381C4440EA22
:100510000940A4EB0804A0FB02894C45C6464D46A1
:1005200015D312D056B1BAEB0E0364EB050404FAEE
:1005300007F7CB401F43CC40376074600021BDE813
:10054000F0871846F8E69046E0E6C245EAD2B8EBF6
:10055000020E69EB03050138E4E72846D7E7404679
:1005600091E78146BEE7014678E702383C4445E71B
:10057000084608E7A8F102083D442BE7704700BF92
:1005800038B50E4A0E4B054618784FF47A73B3FB14
:10059000F0F31068B0FBF3F000F09CF8044658B993
:1005A0000F2D09D8024629464FF0FF3000F05EF8C3
:1005B000044B20461D6038BD012038BD0C000020D2
:1005C000000000200400002008B50B4B1A6842F41C
:1005D00000721A601A6842F480621A601A6842F463
:1005E00080721A60032000F02FF80020FFF7C8FF88
:1005F00006F03CFA002008BD003C0240034A044BD0
:1006000011681B780B441360704700BF1402002070
:1006100000000020014B1868704700BF1402002042
:1006200038B50446FFF7F6FF631C1CBF054B1B786B
:10063000054618BFE418FFF7EDFF401B8442FAD8C7
:1006400038BD00BF00000020074AD36823F4E063F0
:100650001B041B0C43F0BF63000243F4003300F49F
:10066000E0600343D360704700ED00E0174B30B506
:10067000DC68C4F30224C4F10703251D042B28BF42
:100680000423062D4FF0010505FA03F303F1FF33B0
:100690008CBF033C00241940A14005FA04F4013C3E
:1006A0002240002842EA01024FEA0212ADBF00F1E7
:1006B000604000F00F00064B00F56140B5BFD2B2BC
:1006C000D2B21A5480F8002330BD00BF00ED00E024
:1006D00014ED00E00138B0F1807F0AD2064B074AE2
:1006E0005860F02182F823100020072298601A60D9
:1006F00070470120704700BF10E000E000ED00E00F
:1007000082B0074B4FF4FA521B68B3FBF2F301932C
:1007100000BF019B5A1E0192002BF9D102B0704715
:100720000C00002007B50023019341F21801036873
:100730005A5842F480125A505B580193FFF7E0FF79
:10074000019A03685A5003B05DF804FB70B5044683
:1007500029B14FF40063C3604FF480438360E369C1
:100760002268E0681568002BA36843EA000330485C
:1007700043F4007300EA05000CBF4FF480610021D0
:1007800003430B43136001201568FFF749FF2368FB
:1007900040221D6001205A605D68FFF741FF236819
:1007A0005D6000259D60DD609A6922F0BE02120442
:1007B000120C42F080029A6101209E69FFF730FF1F
:1007C000236801209E61DD61DD69FFF729FF226852
:1007D000184BD56141F21805012051590B4043F0E7
:1007E000087343F0040353515659FFF719FF236868
:1007F000114A5E5103F5805301201A601D68FFF70E
:100800000FFF226802F580531D60A369012B07D1F9
:1008100041F21C01535843F4803343F040035350DA
:100820006369064A998811601A68054B1A6070BDA1
:100830000F8120FF233FDEF88020C102408002406C
:1008400044800240F0B590F84540012C4FF002047E
:1008500033D0012580F8455080F84440C16201F151
:10086000200400254FF4801740F2F45E03F1FF3CB2
:100870009D420BD1026841F21003D150012380F850
:100880004430002380F845301846F0BD0EFB0526A5
:1008900044F8186CC66944F8207C2EB954F8206CD2
:1008A00046F4400644F8206C65452CBF0E462646AB
:1008B00044F8146C01352034DAE72046F0BD2DE908
:1008C000F04190F84540012C4FF0020430D0012552
:1008D00080F8455080F84440816201F120040025F1
:1008E0004FF0004644F2F45740F2F45E03F1FF3C4F
:1008F0009D420CD1026841F20C03D150012380F8D3
:100900004430002380F845301846BDE8F0810EFBE6
:10091000052844F8188C65452CBF8846A04644F845
:10092000206C44F81C7C44F8148C01352034DFE73B
:100930002046BDE8F081000090F84530012BF0B56D
:100940004FF0020368D0012280F8452080F844303F
:1009500029B980F8442080F845101046F0BDC36ADC
:100960001C68002C06DA122380F84430002380F83B
:100970004530F2E740F2F454A1422ED9B1FBF4F233
:1009800004FB12143CB30132244C01F2F45104FB79
:100990000211C1F30C01002440F2F456571E1D68E9
:1009A00025F040551D601CB91D6845F080551D603F
:1009B000A74208BF1D685E6004BF45F000551D607A
:1009C0001D6808BF5960013445F0004594421D6020
:1009D000DB68E4D10DE0012AD6D11A6842F040521A
:1009E0001A601A68C1F30C0142F0004259601A60A3
:1009F000DB68C36241F2140203689958490705D5C0
:100A00000421995041F2040200219950012380F8F9
:100A10004430002380F845301846F0BD0CFAFFFF43
:100A200090F84530012B30B54FF0020323D080F809
:100A30004430836A1A680124002A80F8454027DB85
:100A40001A68D96812F4807217D0826B436322440B
:100A5000A24208BF03631B688263C3F30D43043BD8
:100A6000C363036B9B680364012380F84430002355
:100A7000816280F84530184630BD1D688162AD0541
:100A800055BF836B0363013342634CBF846383634D
:100A90000123002280F8443080F84520EBE7F8B5C8
:100AA00090F84430822B0546164630D002688223E7
:100AB00080F844301369890101F4F86403F01C01E3
:100AC0002143048AE402A4B20C4344F001041461FB
:100AD000FFF7A0FD074614F0010007D12B685B6902
:100AE0009BB23360012385F84430F8BDFFF792FDD7
:100AF000C01BB0F5803F07D3012385F844300023A5
:100B000085F845300320F8BD2B681C69E3E7022017
:100B1000F8BD90F84430422B70B505462ED04223E4
:100B200080F8443003688C01186904F4F86444F0D8
:100B3000030400F01C0020432C8AE402A4B2044306
:100B400092B25A611C61FFF765FD064614F0010080
:100B500003D1012385F8443070BDFFF75BFD801B96
:100B6000B0F5803F07D3012385F84430002385F892
:100B70004530032070BD2B681C69E7E7022070BD7B
:100B8000F7B5002300930446002800F0DE8090F8BB
:100B9000443003F0FF021BB980F8452005F0B2FC99
:100BA000002301936A4B5A6C42F480425A645B6C96
:100BB00003F480430193019B664B5A6822F40002C0
:100BC0005A605A68216A0A435A60236803F58053C1
:100BD0001A6842F001021A60FFF71CFD05462368FF
:100BE00003F580521268D0071DD41D6900F05CFC2B
:100BF000594B5A4A0344934225F01C0522D845F02C
:100C0000080523684FF400421D6100212046FFF7CC
:100C100080FF054668B3012120460125FFF796FDB8
:100C200084F844500BE0FFF7F5FC401BB0F5FA7F69
:100C3000D5D90325002384F8445084F8453028464C
:100C400003B0F0BD464B474A0344934202D845F0F7
:100C50000C05D6E7444B454A03449342D1D9444B53
:100C6000444A0344934294BF45F0040545F01005FF
:100C7000C7E7FF20FFF7D4FC6368002B53D0FFF7D2
:100C8000C9FC41F2883706466A4601212046FFF733
:100C900006FFFFF7BFFC801BB8420BD9012120469D
:100CA000FFF754FD012384F84430002384F84530D5
:100CB0000325C4E7009B5907E6D54FF48052002175
:100CC0002046FFF726FF0028A5D1FFF7A3FC41F23D
:100CD000883706466A4601212046FFF7E0FEFFF707
:100CE00099FC801BB842D9D8009B9A06F2D56A4677
:100CF0001F212046FFF7D3FE00288CD1009B13F064
:100D0000100218BF4FF400625B074CBF00234FF482
:100D10008043E260A36000212046FFF717FD012316
:100D200084F844308BE7A368E2685B0843EAD202A8
:100D300092B229462046FFF7ECFE00287FF46BAF05
:100D400040F6FF70FFF76CFCE5E7012577E700BF91
:100D5000003802400038014000D3CEFEBFE1E4007D
:100D600040F1E9FD3F787D0100796CFCFF5962029A
:100D7000001F0AFA7FF0FA0290F84530012B73B594
:100D800005464FF0020031D000242B6885F844005E
:100D900001941A68012642F0080285F845601A603D
:100DA0001B680193FFF7ACFC2B68019A1A60009452
:100DB0001A6842F004021A601B680093FFF7A0FC57
:100DC0002B68009A1A602846FFF7ACFC2A6841F2AB
:100DD00018032046D15841F40051D150D15841F068
:100DE0000201D15085F8446085F8454002B070BDDD
:100DF0002DE9F04F85B00B68DFF8AC81684ADFF869
:100E0000AC91019300230124019D9C402540AC42FC
:100E100040F0B0804C6824F0100C0CF1FF36012E2D
:100E20004FEA430E12D88768032606FA0EF627EA21
:100E30000607CE6806FA0EF63E4386604768C4F39E
:100E4000001627EA05079E403E4346600326C76812
:100E500006FA0EF6F64307EA060A8F6807FA0EF757
:100E600047EA0A07BCF1020FC76016D14FEAD30A5E
:100E700000EB8A0A03F0070BDAF820704FEA8B0BBD
:100E80004FF00F0C0CFA0BFC27EA0C0C0F6907FA59
:100E90000BF747EA0C07CAF8207007683E4004F0D9
:100EA000030707FA0EFE4EEA06060660E60061D565
:100EB0004FF0000BCDF80CB0D8F84470394E47F421
:100EC0008047C8F84470D8F8447007F48047039707
:100ED000039F23F0030707F1804707F59C3703F0D2
:100EE000030CD7F808A04FEA8C0C4FF00F0E0EFA47
:100EF0000CFEB0422AEA0E0E43D006F58066B042E0
:100F000041D006F58066B0423FD006F58066B0421B
:100F10003DD006F58066B0423BD048453BD006F553
:100F20000066B04239D006F58066B04214BF08268C
:100F3000072606FA0CF646EA0E06BE601668EF4370
:100F400014F4803F0CBF3E402E431660566814F4E4
:100F5000003F0CBF3E402E435660966814F4801F3D
:100F60000CBF3E402E439660D668A40254BF3E405C
:100F70002E43D6600133102B7FF445AF05B0BDE89A
:100F8000F08F5E46D5E70126D3E70226D1E7032698
:100F9000CFE70426CDE70526CBE70626C9E700BF45
:100FA000003C0140000002400038024000140240B2
:100FB0000AB1816170470904FBE7436931EA030321
:100FC00008BF0904816170472DE9F341044608B95F
:100FD00001203FE00368DD0710D4236898075AD446
:100FE00023681A0700F19C8023685B0700F1BA8030
:100FF000A069002840F01B8100202BE0A44B9A68D8
:1010000002F00C02042A07D09A6802F00C02082AA7
:101010000AD15B68590207D59D4B1B689A03DCD542
:101020006368002BD9D1D3E76368994DB3F5803F4E
:1010300013D12B6843F480332B60FFF7EBFA944D08
:1010400006462B689B03C8D4FFF7E4FA801B64288C
:10105000F7D9032002B0BDE8F081B3F5A02F04D189
:101060002B6843F480232B60E3E72A6822F4803264
:101070002A602A6822F480222A60002BDDD1FFF743
:10108000C9FA06462B689F03A7D5FFF7C3FA801B52
:101090006428F7D9DDE77E4B9A6812F00C0F07D071
:1010A0009A6802F00C02082A11D15B685E020ED425
:1010B000774B1A68950702D5E268012A88D11A6829
:1010C000216922F0F80242EAC1021A6088E7E26868
:1010D000704BB2B101221A60FFF79CFA6C4D0646C4
:1010E0002B68980707D52B68226923F0F80343EA99
:1010F000C2032B6074E7FFF78DFA801B0228EFD93B
:10110000A7E71A60FFF786FA614D06462B68990734
:101110007FF566AFFFF77EFA801B0228F6D998E7C5
:1011200062695D4B7AB101221A60FFF773FA584D7C
:1011300006466B6F9F073FF557AFFFF76BFA801BB3
:101140000228F6D985E71A60FFF764FA504D064683
:101150006B6F98077FF548AFFFF75CFA801B02289A
:10116000F6D976E74A4B1A6C12F0805228D10192D8
:101170001A6C42F080521A641B6C03F08053019386
:10118000019B0126454D2B68D9051BD5A368404D11
:10119000012B27D12B6F43F001032B67FFF73AFA9E
:1011A0003B4D074641F288382B6F9B0739D5002EFF
:1011B0003FF41EAF364A136C23F08053136417E7D5
:1011C0000026DFE72B6843F480732B60FFF722FAD9
:1011D00007462B68DA05D9D4FFF71CFAC01B022892
:1011E000F7D936E7052B04D12B6F43F004032B67A7
:1011F000D0E72A6F22F001022A672A6F22F0040248
:101200002A67002BCAD1FFF705FA41F28838074652
:101210002B6F9807CBD5FFF7FDF9C01B4045F7D9D9
:1012200017E7FFF7F7F9C01B4045BDD911E7184D87
:10123000AB6803F00C03082B47D0194E002302289B
:10124000336035D1FFF7E6F907462B68990129D4B9
:10125000226AE3691343626A43EA8213E26A43EA59
:101260000263A26A0A4C5208013A43EA02436B60E5
:1012700001233360FFF7CEF9054623689A013FF555
:10128000BBAEFFF7C7F9401B0228F6D9E1E600BF65
:101290000038024000004742800E47420070004084
:1012A00060004742FFF7B6F9C01B0228CDD9D0E64F
:1012B000FFF7B0F904462B689B017FF59DAEFFF761
:1012C000A9F9001B0228F6D9C3E601283FF4C2AEF3
:1012D000A868E36900F480029A427FF479AE226A3A
:1012E00000F03F0393427FF473AE626A47F6C07327
:1012F000034093427FF46CAEA26A00F44033934201
:101300007FF466AEE36A00F07060C01A18BF012077
:10131000A0E600BF134908B58B6803F00C03042B4B
:1013200003D0082B03D0104808BD104808BD4A68F8
:101330004B68496813F4800314BF0C480A48C1F392
:10134000881118BF002302F03F02A1FB0001FEF745
:101350008FFF044B5B68C3F3014301335B00B0FBB9
:10136000F3F008BD003802400024F40000127A00B7
:101370002DE9F0410D46044610B90120BDE8F08189
:10138000444B1A6802F00F028A4229D321688F0762
:101390002ED4C80741D43F4B1A6802F00F02954281
:1013A00067D3226851076DD4130707D53A4A2169DC
:1013B000936823F4604343EAC1039360FFF7AAFFF5
:1013C000354B364A9B68C3F30313D35CD840344B88
:1013D0001860344B1868FFF7D3F80020BDE8F0819F
:1013E000CAB21A701B6803F00F039942C5D1CDE74A
:1013F000294B11F0040F1EBF9A6842F4E0529A6024
:101400000E0742BF9A6842F460429A609A68A068E8
:1014100022F0F00202439A60BBE762681E4B012A89
:101420001DD11B6813F4003FA7D01B4EB36823F0F7
:1014300003031343B360FFF7EDF841F28838074622
:10144000B368626803F00C03B3EB820FA3D0FFF71D
:10145000E1F8C01B4045F3D90320BDE8F081911E9F
:1014600001291B6802D813F0007FDDE713F0020F9B
:10147000DAE7EAB21A701B6803F00F039D427FF4AB
:101480007CAF8EE70449E0688B6823F4E0530343A4
:101490008B6089E7003C024000380240FA8E000869
:1014A0000C00002004000020014B1868704700BFAA
:1014B0000C000020044B054A9B68C3F38223D35CD5
:1014C000034A1068D8407047003802400A8F00086D
:1014D0000C000020044B054A9B68C3F34233D35CE5
:1014E000034A1068D8407047003802400A8F00084D
:1014F0000C00002038B50368C1681A69044622F45C
:1015000040520A431A612569A268D968C0692A4312
:10151000656921F416412A4321F00C0102430A4374
:10152000DA605A69A16922F440720A43B0F5004FAB
:101530005A61254A29D1934203D002F58062934231
:1015400020D1FFF7C7FF6268256892184FF00003AB
:101550004FF019015B41A0FB0101FEF789FE6421F8
:10156000B0FBF1F401FB1403DB003233B3FBF1F306
:1015700003F007025B0002EB041203F4F873134458
:10158000AB6038BDFFF796FFDDE7934202D00F4A0C
:10159000934216D1FFF79EFF6368256819219A00D0
:1015A000A0FB01019B0FFEF763FE6422B0FBF2F18A
:1015B00002FB11031B013233B3FBF2F303EB011304
:1015C000DEE7FFF777FFE7E7001001400014014076
:1015D00010B5044640B390F8393003F0FF021BB950
:1015E00080F8382005F062FA2268242384F8393024
:1015F000D36823F40053D3602046FFF77BFF2368B2
:101600001A6922F490421A615A6922F02A025A6138
:10161000DA6842F40052DA6000202023E06384F8A4
:10162000393084F83A3010BD012010BD40BA80B284
:10163000704700BA704708B501F0B6F901F0C8FB71
:1016400001F013FC04F0DAFD02F058F8BDE80840A0
:1016500004F07ABD70B51826074C46430546A059DC
:1016600018B101F043FD0023A351182303FB0544E7
:101670000023237570BD00BF900000202DE9F347C3
:101680000B9D894692469846074630B92C4B2D490A
:101690002D484FF48B6205F00BFB00221C21022029
:1016A00001F086FD0646002847D043891B2B06D84B
:1016B000234B2649244840F2644205F0F9FABDF86C
:1016C00034007468FFF7B2FFE08097F82430062BEF
:1016D00006D01B4B1E491C4840F26B4205F0E8FA4D
:1016E000D8F80030A360B8F80430A3812B68C4F8A0
:1016F0001230AB88E3820A9B1B68C4F80E300C9B47
:101700001B68A361012363700823A3700623237160
:1017100004230025637140F606032570E5704A46F0
:10172000009331465346384604F064FE304601F0DB
:10173000DDFC284602B0BDE8F0874FF0FF30F9E746
:10174000AD7B0008E47B0008F27B00081A7C0008EF
:101750004B7C00082DE9F74F3E4B01910A220546CC
:1017600000209446144681468046834696461E468F
:10177000BEF10A0F1F7D12D19FB94FFA80FE0130D2
:101780000A2803F11803F3D1019B990704D4BEF191
:101790000A0F1CD1DB0735D44FF0FF3009E0002FD2
:1017A000EDD0002D4AD029688A4659688A4545D12E
:1017B00040B203B0BDE8F08FC245E0D34FFA80FCE1
:1017C000D046DCE7CA4524BF44B2D146D7E75FFA2A
:1017D0008EF7182303FB07631B7D33B11E4B1F4994
:1017E0001F4840F2871205F063FA25B1182303FB66
:1017F00007632A685A60182303FB07660023738275
:1018000078B2D6E70A2C0FD01823E7B25C433359DD
:1018100033B1114B1349124840F26F1205F048FAE8
:101820003846FFF717FFD4E7BCF10A0F02D05FFA82
:101830008CF7F5E70A2AAFD0D7B2F1E7012FB3F85A
:1018400012A0BFD11F68002FB6D0DA4597D342B29D
:10185000D34694E790000020AD7B0008CF7A0008C3
:10186000F27B0008B87A000870B5084D06460024DF
:101870002B7D2BB1AB68B34202D12046FFF7EAFEC5
:1018800001340A2C05F11805F2D170BD900000203A
:101890002DE9F047804686B00C4649B9464B47498A
:1018A00047484FF4227205F003FA06B0BDE8F0870E
:1018B00045682B88B3F5807F08D12B79062B05D19D
:1018C0006B79042B02D16B88082B03D0404601F0C2
:1018D0000DFCEAE74E68D5F80E300593AB6916B1FA
:1018E0009B1B5E425E4194F82430002E14BF4FF0E3
:1018F00001094FF00209062B05F1080706D02E4B0F
:1019000030492F4840F2AB1205F0D2F90598002873
:101910003CD0214600F095FC8246B8BB059B03F005
:10192000F003E02B32D0494605A8FFF713FF00284B
:101930002CDB254B182202FB00F103EB010E4FF0CC
:10194000020C8EF814C04FF00C0CCEF8084012FBBD
:1019500000C23868985003EB020CBA88ACF8042037
:1019600053F80190AEF812A0B9F1000F0ED043F871
:1019700001A04FF40063009304F125023B46494661
:10198000204604F037FD484601F0B0FBEB88B3F584
:10199000807F9BD1002E99D00222039205AA04F1E8
:1019A00025030292221D009201973A4619462046CD
:1019B000FFF764FE8AE700BFAD7B0008E47B000808
:1019C000F27B0008177B0008900000201FB502463C
:1019D00000F125030291012405490191043200928E
:1019E0000394044A1946FFF749FE04B010BD00BF36
:1019F000E08E0008748E0008F8B5134C002502260E
:101A00000427227C6AB1E38901339BB2B3F5967F48
:101A1000E38103D2012A0AD1042B0CD92846FFF70F
:101A200019FE01350A2D04F11804EAD1F8BD032A84
:101A300006D12774F5E721466068FFF7C7FFF0E796
:101A4000042AEED12674ECE7940000202DE9F0433F
:101A5000274D1446182202FB045285B0127D012A3C
:101A60000646884606D8234B2349244840F2ED22F7
:101A700005F01EF9182101FB045906F1250799F814
:101A80001430022B0DD1B9F81230B3F58E7F17D96F
:101A9000494604313046FFF799FF10B9032389F80E
:101AA0001430182303FB04534FF4006200920C33EC
:101AB0003A464146304604F09DFC05B0BDE8F0834F
:101AC000B3F5877FEDD304EB4403DB0003F10C0295
:101AD00004332B4402930A4B01930121331D0391DC
:101AE00000932A443B4639463046FFF7C7FDD4E70A
:101AF00090000020AD7B00083B7B0008F27B0008D3
:101B0000E08E00082DE9F347894680460146D9F862
:101B10000000164600F095FB044600285ED1D9F877
:101B2000003003F0F002E02A58D0002B56D00121FB
:101B30004846FFF70FFE051E53DB404F182303FBFB
:101B400005731A7D1AB901241C75C3F8088018237F
:101B500003FB05731B7D33B9394B3A493A4840F2D0
:101B6000C93205F0A5F80CB9002E3CD149464046D3
:101B7000FFF72CFF002E38D102B0BDE8F087FBD173
:101B8000DFF8BC80DFF8C890DFF8BCA034469CB911
:101B9000304601F065FC002E4CD0B046182303FB04
:101BA00005F21C46B85808B101F0A0FA04FB05F391
:101BB000002047F80380DFE7628923899A4208D131
:101BC000236833B143464FF47B724946504605F0D3
:101BD0006FF8237B012B1ED12468D8E76FF00F002C
:101BE000CAE72846C8E74FF0FF30182303FB057209
:101BF000127D012AC3D9154A15700C2213FB052347
:101C00004FF4006200923B4408F125023146404601
:101C100004F0F0FBB0E700222189022001F0C8FAAD
:101C2000804638B1314601F069FC0028B6D0404604
:101C300001F05CFA4FF0FF309EE700BF90000020FB
:101C4000AD7B00086B7B0008F27B00088001002060
:101C5000937B0008F0B50E4685B01546044630B9B2
:101C60003E4B3F493F4840F21B3205F021F836B960
:101C70003A4B3D493B484FF4477205F019F835B9E6
:101C8000364B3A49374840F21D3205F011F82146EB
:101C9000286800F0D6FA00285BD12B6803F0F00228
:101CA000E02A1DD101238DF808305E238DF80A301B
:101CB0006B788DF8090003F07F038DF80B30AB785B
:101CC0008DF80C30EB788DF80D3002AB4FF40062DC
:101CD0000092314604F12502204604F08BFB1FE000
:101CE0006268A1685A400A4208D09BB24FF6A962C6
:101CF000934203D0E36873B304F10C051C4B1D49F8
:101D00001A78182000FB0210017D0129194609D913
:101D10002F6843689F4205D131462046FFF796FE63
:101D200005B0F0BD134B0022187D012806D92F689D
:101D30005868874202D1D2B20A70EDE701320A2A0E
:101D400003F11803F0D1324629462046FFF7DAFEA8
:101D5000E6E7094BBAE76FF00300E1E7AD7B000867
:101D6000E47B0008F27B0008BB850008F87A0008D5
:101D70008001002090000020748E0008F0B5044619
:101D800087B00F46164624210022012001F010FAE8
:101D90000546A0B34389232B06D81A4B1A491B4882
:101DA0004FF4B17204F084FF22686C680023237141
:101DB0006371A371E37127706670134604F1080123
:101DC00002F11C0053F8046B41F8046B8342F9D113
:101DD00006AED36846F8043D304600F0BBF858B173
:101DE00000210123A170E170324602908DE80A00C3
:101DF0002846FF2300F014FA284601F077F907B0CF
:101E0000F0BD00BFF37C0008287D0008F27B0008CD
:101E10002DE9F043444BD3F8089099F8005005F0B1
:101E20000F05AD00132D85B0044688461F462AD9FC
:101E30004289032A27D942681278082A23D158698F
:101E400000F0F002E02A1ED0196800F0FAF9064608
:101E5000C8B92389072B16D905F10E01204601F0D8
:101E60003FF900284FD021892944324689B2022007
:101E700001F09EF9064630B1428905F108039A4205
:101E800007D201F033F9204605B0BDE8F04301F078
:101E90002DB949462A46406804F0F7FE69423046AB
:101EA00001F01EF938B1214B21492248AF2204F03C
:101EB000FFFE3046E5E72146304601F01FFB0028D3
:101EC000F7D1204601F012F93446294620466668CB
:101ED00001F006F902460028D5D161687B69CB6024
:101EE0003B690B61FF233070B070F0700B72887229
:101EF000C872012101910090CDF808800E4920465A
:101F000000F08EF9BFE7C5F57F41F23109B22046F6
:101F100001F0E6F80028D8D0044B08490548C02253
:101F200004F0C6FEAFE700BF18020020F37C0008F3
:101F30008C7C0008F27B00082C020020C17C000889
:101F40000A4604300321FFF719BF0A4604300B216B
:101F5000FFF714BF30B5134B1B686BB9124A1268F8
:101F6000EAB192F82B1001F00501052917D151684B
:101F7000002918BF134612E093F82B4004F0050225
:101F8000052AE9D15A68002AE6D001689D684A40CE
:101F90002A4204D0A207DFD4DA689142DCD1184685
:101FA00030BD00BF30370020343700202DE9F84F16
:101FB000476897F800904FEA1913042B05468846A6
:101FC00005D0284601F092F80020BDE8F88F788807
:101FD000FFF72CFB2B8909F00F0983424FEA89098F
:101FE000044603D90146284601F0C2F96B894B45E6
:101FF000E7D32B89A342E4D3B9F1130FE1D93B69AD
:10200000494C636103F0F003FA682261E02B39D197
:1020100098F82B30DA0703D5D8F80430002B58D1C4
:1020200000264146206900F00CF90028C9D1236937
:1020300003F0F003E02BC4D0002EC2D0FB8823F0C5
:10204000C00333B1284600F02BFA05460028BBD068
:102050004768A76084E840013B7803F00F039B00CA
:10206000C9F100012846A38101F03AF87B7A062BDA
:102070003DD0112B2FD0012B3ED141462846FFF7F2
:10208000C7FE2CE0DFF8A4B046464FF0010A96F8F0
:102090002B30DB0704D4BAF1000F0DD1366810E005
:1020A0007368002BF7D060698342BAD0314600F0E4
:1020B000C8F80028EFD0B4E7237D7F2BB0D0DBF841
:1020C0000060464508BF36684FF0000A002EDED19A
:1020D000A6E74646A5E74146284604F091F80023C6
:1020E00023606360A360A381236163616CE7414661
:1020F000284602F039FEF2E73146606900F0A1F8A7
:1021000068B9636903F0F003E02B08D0494628461C
:1021100000F0E9FF6F6002212846FFF711FF284613
:1021200000F0E4FFDBE700BF18020020303700209A
:102130002DE9F3471F46C389DDF83080012B0546A2
:102140008A46164606D0304B3049314840F2333289
:1021500004F0AEFD002E47D01421284600F0C0FF49
:1021600000284ED16B896C68132B06D8264B294961
:10217000274840F2613204F09BFD9DF82C30277215
:10218000637233682361452323709DF828306370A0
:102190002889DFF88890FFF749FA00276080A77147
:1021A000E771B9F80000FFF741FAB9F80030A080F4
:1021B0000133A9F80030BAF1000F12D1164B1B6899
:1021C000E360A772E772B8F822309BB12A899A427D
:1021D00010D932464146284600F00CFB02B0BDE85B
:1021E000F087DAF80030EBE76B6802AE1B6946F85F
:1021F000043DE8E7D8F8143032462946404698476F
:10220000ECE76FF00100E9E7547D0008887D0008E5
:10221000F27B0008947D0008C47D00088201002044
:10222000F0B4069C9DF810509DF814601AB109B1E5
:102230000F6807B9211D069405960495F0BCFFF7B9
:1022400077BF431E033311D891F82B3013F00203EC
:102250000ED04A6890420BD08B6842401A4207D198
:10226000DB4383430CBF01200020704701207047EF
:102270000020704738B50C4B1A68824204460D4660
:1022800007D102681A6021460420BDE8384000F0FA
:10229000C9BD31B9054B0649064840F2451204F064
:1022A00007FD23682B60EEE788010020AD7E000863
:1022B000E67E0008F27B000881422DE9F84F0546D2
:1022C0000F4605D12F4B30493048AB2204F0F0FCCB
:1022D00047B13B689D4205D02A4B2D492B48AD2282
:1022E00004F0E6FC6E6873689A8892BB1A686A60AC
:1022F00005F11C0105F1080252F8040B43F8040B28
:102300008A42F9D101213046FFF71FFE304601F025
:102310009FF80446304600F0E9FE6E68DFF86480FE
:10232000DFF87890DFF864A0AEB92846194D394639
:10233000FFF7A0FF2B88A34205D2124B1649134882
:10234000D22204F0B5FC2B881B1B2B802046BDE855
:10235000F88F0024E1E773683046D3F800B001F04D
:1023600077F80444B4F5803F05DB4346CC22494668
:10237000504604F09DFC3046A4B200F0B7FE5E4625
:10238000D2E700BFAD7E0008FF7E0008F27B0008A8
:102390000B7F0008840100203A7F00081D7F0008A1
:1023A0002DE9F041DFF86C8006460F460025002439
:1023B000D8F800302146A646204653B910B1FFF7A1
:1023C0007BFF0544BD4201DA012CF0DC2846BDE864
:1023D000F081D6F80CC05A69624509D1D6F810C010
:1023E0009A69624504D1B3F80CC0B288944508D00C
:1023F000013460B1C27F93F81FC094459CBF714601
:1024000018461A68002A18BF9E461346D5E771463B
:102410001846F6E78801002010B5044630B9064B8F
:102420000649074840F2AE2204F042FC214605204E
:10243000BDE8104000F0F6BCAD7E000877850008CE
:10244000F27B000810B5044630B9084B084909482A
:102450004FF42E7204F02CFC606908B100F046FEC7
:102460002046BDE81040FFF7D7BF00BFAD7E000893
:10247000557F0008F27B000838B5084B1868002427
:1024800000B938BDC37F056823B1013BC37704465B
:102490002846F5E72146FFF70FFFF9E788010020FE
:1024A0002DE9F74F45682B7803F00F03052B0746FE
:1024B00040F08C80E888B44CFFF7B8F8C0F30C000B
:1024C0004FEAC0096888FFF7B1F82B7803F00F03D3
:1024D000A0EB830083B23846019300F0B9FF238854
:1024E00003440A2B824668DCA84E3468002C72D163
:1024F000042000F07BFC044658B951462846FFF7FB
:102500004FFF824562DC042000F070FC0446002886
:102510005CD020220021204604F0C2FB0323E37795
:102520003368236034602B4604F1080205F114017E
:1025300053F8040B42F8040B8B42F9D1B5F806B0FE
:102540001BF0200B08D1019B4B449BB299453DD811
:102550004FF6EB72934239D87D686888FFF766F8CA
:1025600095F8008008F00F08A0EB8808E888FFF7CE
:102570005DF8C0F30C001FFA88F8C0007E68D4F83C
:1025800004E0B08008EB000300259BB23570757045
:10259000B570F570F38072464FF0010852BB002D04
:1025A00040F09280BEF1000F7DD0794B79497A4896
:1025B0004FF4DA7204F07CFB75E001462846FFF721
:1025C000EFFE18B1238853440A2B8DDD384600F006
:1025D0008DFD0025D4E0EB6862699A4208D12B6931
:1025E000A2699A4204D1A289AB889A4200F0DC80A9
:1025F00024687BE7D2F804C0BCF80410884254D2A7
:102600003260002D4DD0EA889042C0F091808B421C
:1026100000F28E802F60904240F0E480BBF1000F0A
:1026200004D0A37F13F0010300F0DA80B8F1000FAB
:1026300059D14FF00008544E33889A44A6F800A0B0
:10264000BBF1000F07D1019B9944A37FA4F81C9014
:1026500043F00103A377B8F1010FBAD1A38B143370
:10266000A38363685D682F6804F108032A4604F1B8
:102670001C0153F8040B42F8040B8B42F9D1A08BD8
:10268000FEF7D4FF00236880AB71EB71AB72EB7285
:102690006568002F57D13D4B19688C4265D139468A
:1026A00065E08B4244D86760B8E741D0BCF80620AB
:1026B00082423DD825B1EA888A4218BF4FF000080F
:1026C000DCF80020654669E7EB88834206D9304B89
:1026D0003249314840F2AB1204F0EAFA2F60EA883E
:1026E000B3889A4298E76368002BA2D059688B8818
:1026F000002B9ED133689BB9B14206D1244B2849A7
:1027000025484FF4EB7204F0D3FA3368002B92D0D3
:102710001F4B244920484FF4EC7204F0C9FA8AE7B1
:102720005A68F0889388984283D113681646E2E786
:10273000384600F08DFE144A1388181A1080384667
:1027400000F0D4FC42E7D7F804806FF0130138465C
:1027500000F0C6FC3946284600F096FED8F8007016
:1027600097E70B689C4202D019460029F9D1204610
:10277000FFF780FD284600F06BFE3388181A308082
:10278000284603B0BDE8F08F8401002088010020B6
:10279000AD7E0008477E0008F27B0008297E000815
:1027A0007E7E00088B7E0008E888FEF73FFFC0F3BE
:1027B0000C0000287FF4C2AEE089FEF737FFC0F3BB
:1027C0000C0000283FF4BAAE2B4604F1080205F1D4
:1027D000140153F8040B42F8040B8B42F9D1ADE617
:1027E000984628E7BBF1000F3FF423AF4FF00008F5
:1027F00017E700BF2DE9F04FB1F822808BB0082316
:10280000A8F1140898FBF3F81FFA88F306934368BD
:1028100008921E78029306F00F06B600142E0746A3
:102820008B460BD05A4B5B4940F2E1225A4804F0E8
:102830003FFA6FF005000BB0BDE8F08F029BD8881F
:10284000FEF7F4FEC0F30C0310F40054049304D01C
:102850004F4B524940F2E622E8E73D891FFA88F8DB
:10286000143D4FEAC803ADB207930DB92846E2E71D
:10287000079BAB42A8BF2B469BB20022142102202B
:10288000059300F095FC804670B37B89132B06D826
:102890003F4B4349404840F2093204F009FA029B99
:1028A000D8F804201946143153F8040B42F8040BED
:1028B0008B42F9D1D8F80430DDF814900393B9F1C4
:1028C000000F37D07C89A41BA4B24C4528BF4C46CE
:1028D00014B93F680026F2E7052000F087FA824627
:1028E00028B9404600F002FC4FF0FF30A3E7019406
:1028F0007B6833440093022203462146042000F003
:10290000B7FB18B95046FFF787FDEAE7099038464C
:1029100000F0A6FDA9EB0409224BCAF81470CAF80E
:102920001030099940461FFA89F900F0ADFDB9F160
:10293000000FCED1049BC3F30C00BBF82230133B35
:102940009D42A8BF40F40050FEF770FE039BD88064
:10295000059B03F1140080B2FEF768FE039B039A07
:10296000588000239372D3724146DBF81430089AE2
:1029700058469847404600F0B9FB059B069AED1A69
:10298000049B134426449BB2B6B2ADB204936CE7E9
:10299000AD7E0008C87D0008F27B0008EF7D0008CE
:1029A000097E0008452400080B4B0C4A23F0030362
:1029B0000021136059804FF4C862197108491A80C8
:1029C0009818A3F84026A3F84226064A0860012179
:1029D00083F84416136070473302002090010020F2
:1029E000940100208C0100202DE9F04104460028CC
:1029F00000F08880830706D0434B444944484FF495
:102A0000D67204F055F9434F3B689C4203D3424BC6
:102A10001B689C4206D33C4B40493D4840F2AF12F4
:102A200004F046F93B689C426CD33B4B1A689442D5
:102A3000984667D214F8043CA4F1080533B9324B28
:102A4000374933484FF4E07204F032F9354E002331
:102A500004F8043C33689D423B6838BF35609D42B2
:102A600006D2294B30492A4840F25D1204F020F981
:102A7000D8F800309D4206D3234B2C4924484FF40C
:102A8000AF7204F015F914F8043C33B11E4B284919
:102A90001F4840F25F1204F00BF934F8083CB3F51C
:102AA000C86F06D9184B234919484FF4B17204F086
:102AB000FFF83B6834F8081C5A18954210D010797A
:102AC00070B9D8F8000082420AD0306882425A5A5F
:102AD00024F8082C5A5A08BF35601A44E91A518064
:102AE00034F8062C99188D420CD0087950B930680A
:102AF000854208BF316034F8081C995234F8081C2C
:102B00000B445A80BDE8F081617F0008907F000887
:102B1000F27B00089001002094010020B17F0008A2
:102B2000C87F00088C010020DC7F0008F37F0008CC
:102B30000D80000828800008F8B503314FF6FC75B9
:102B40000D400B2D044604D9B5F5C86F02D90024F9
:102B500059E00C252D4E3268A24203D82C4B1B683D
:102B60009C4206D32B4B2C492C484FF4FA7204F0AC
:102B70009FF833689C4246D3254A1268944242D259
:102B8000A4F1080234F8080CD21A92B2A0F108019C
:102B9000891A89B2A94219D21E4B21491F4840F215
:102BA000062204F085F8D2E705F114068E422AD8F1
:102BB0001C4E02F108010D443768ADB25919B942F3
:102BC00038BF316000260E71585313E01BD01E1819
:102BD0003779002FE8D11F5A124802F108010D443D
:102BE0000168ADB28E4203EB050108BF0160002011
:102BF00008715F534A8024F8085C5A5BB2F5C86FCD
:102C000001D013445D802046F8BD00BF9001002034
:102C100094010020617F0008ED800008F27B00082D
:102C2000048100088C0100202DE9F84348B10330ED
:102C30004FF6FC7505400B2D05D9B5F5C86F03D9C6
:102C40000020BDE8F8830C253748384E0768316806
:102C50007B1A9BB2C5F5C8686FF007094345EFD2F0
:102C6000CC1831F803E094F804C0BCF1000F58D13F
:102C7000A9EB03027244954253D805F1140842456A
:102C800049D305F108021A4492B201EB020888F810
:102C900004C021F802E0A8F8023001232280237149
:102CA0008B5AB3F5C86F01D019444A80A742204F10
:102CB00011D13968366823461A790AB18B422DD171
:102CC0008B42036007D032B11A4B1B491B4840F2BC
:102CD000CF2203F0EDFF08353B682544AB4206D216
:102CE000144B174915484FF4357203F0E1FFA30761
:102CF0000DD0104B1349114840F2D62203F0D8FFF3
:102D00000C4B11490D484FF4367203F0D1FF04F11A
:102D10000800BDE8F88301232371C7E71B8833440B
:102D2000CAE773469AE700BF8C010020900100209B
:102D300094010020617F000852800008F27B0008A7
:102D40006B8000089B800008CA80000810B50468EA
:102D500054B123680360A30706D0044B0449054817
:102D600040F2491203F0A4FF204610BD4481000840
:102D700074810008F27B000838B58B0705460C46C5
:102D800006D0064B0649074840F29D1203F090FF1B
:102D90002B681A6822601C6038BD00BF448100089F
:102DA00024810008F27B00084368816830B5002266
:102DB000033344880A6023F00303A24200DB30BDE2
:102DC0000D681D6005880B6001322B44F5E700009B
:102DD00038B5054D002455F824000134FFF7E4FF11
:102DE000092CF8D138BD00BF3C820008082808B57E
:102DF00007D8084B53F820309868BDE80840FFF723
:102E0000A5BF054B0549064840F2871203F050FF65
:102E1000002008BD3C820008448100081F82000891
:102E2000F27B0008082806D9074B0849084840F2F9
:102E3000DB1203F03DBF29B1064B53F820000830E8
:102E4000FFF79ABF704700BF448100080482000862
:102E5000F27B00083C82000890F82B301B070146EB
:102E600002D50431FEF7B2BD7047704773B5054611
:102E70000C46B9B10B680193019A6B689A420FD066
:102E80002E1D01A9304601F0C7F901A9304603F013
:102E90004FFA04B124686C6014B12846FFF7DCFFD8
:102EA00002B070BD014B1B68E5E700BFC47D0008A0
:102EB00070B5064615461C4609B10B684BB930463D
:102EC000FFF7D4FF05B12D68B56004B12468F46044
:102ED00070BD02B11568B56004B12468F460304675
:102EE000BDE87040FFF7C2BF2DE9F843099E0446D4
:102EF0000F46904699462EB9154B16491648FB22A7
:102F000003F0D6FE154A032384F82030089BE361C2
:102F1000137884F82E300025591C0A9B1170236108
:102F200020466560A560E56084F82B504B4642461C
:102F30003946FFF7BDFF2046B04730B9084B1A6845
:102F400022601C602046BDE8F8832C46FAE700BFEB
:102F50006082000891820008F27B0008BC0100201A
:102F600030370020014B1860704700BF3437002015
:102F700090F82B20D10709D442F00101520780F8C4
:102F80002B1003D543680BB1FFF766BF704790F86D
:102F90002B30D90707D523F001011B0780F82B1030
:102FA00001D5FEF761BC704738B5044600282FD123
:102FB0001F4B2049204840F23F2203F079FE0020B9
:102FC00038BD88B2257B63680DB1032D06D15B1A2D
:102FD00004F1100293420AD2012038BD013D012DB7
:102FE00011D800290CDA62898242F5D35B1A208954
:102FF0006360638989B20B44014463812181DEE708
:10300000002AF3D1E8E70A4B0C4940F277220BE0A3
:103010000029D4D0D5DA4842638980B28342D1D224
:10302000034B074940F24722034803F041FED3E730
:103030000D85000877850008F27B00085B85000895
:103040003D850008084B002210B51A70074B1C681C
:1030500004B910BD206F20B100F0CAFB0023236724
:1030600010BDE468F4E700BF383700204037002087
:1030700070B5049D04281ED8DFE800F02603281B45
:103080001B0022240334BDF8140024F003040E199D
:1030900086424FF000000BD81860CDB12C445C6024
:1030A00002201A730122587319815981DA81184656
:1030B00070BD0024E6E7074B0749084840F2C512F7
:1030C00003F0F6FD002070BD3624DBE70E24D9E7BF
:1030D0005D60E5E70D85000850830008F27B00087D
:1030E0000022FFF761BF0122FFF75EBF2DE9F84321
:1030F000044650B9284B2949294840F2D22203F00E
:10310000D7FD26463046BDE8F883037B032B06D95E
:10311000214B2449224840F2DE2203F0C9FD1E4F14
:10312000DFF88890DFF878800025EEB2002CE9D037
:10313000E38933B93B4640F2EB224946404603F06F
:10314000B7FDE389013B9BB2E381002BDAD1637BBE
:1031500026689B070ED5236933B93B4640F2F92216
:103160001149404603F0A4FD2369204698470135E4
:103170003446DAE7237B032B04D121460820FFF7EE
:1031800051FEF4E7013B012B02D821460720F6E768
:103190002046FFF729FCEAE70D850008778500083F
:1031A000F27B0008C1840008EC840008D684000883
:1031B0002DE9F84F0E46174604280ED8DFE800F038
:1031C0001503170B0B002225032F00F2BC80DFE84C
:1031D00007F092ADAD100025F6E75D4B5D494FF469
:1031E0008B725D4803F064FD4BE03625ECE70E255D
:1031F000EAE70820FFF7FAFD044628B9574B0122F9
:103200001A702046BDE8F88F032303730023036080
:103210004319033525F00305C5F51475B54203F1CF
:10322000130328BF354623F00303436000F51877E6
:103230002B449F420681458106D2454B484946486A
:103240004FF4987203F034FD0123E3816389DFF8C2
:103250000081DFF818A1DFF80091F61AA346002ECE
:1032600004DC0123E38100236373CAE70820FFF72E
:10327000BDFD054638B9394B012220461A70FFF7CB
:1032800035FF0024BDE7032303730023437303606A
:103290004FF6FF739E42CBF8000006D143464FF431
:1032A000A6725146484603F003FDB3B2B3F5147F4E
:1032B0002B8128BF4FF414736B8105F110036B60F1
:1032C0009B0706D043464FF4A9722649484603F0AF
:1032D000EFFC6289636813449F4206D2434640F282
:1032E00055121F49484603F0E3FC0123EB816B892B
:1032F000AB46F61AB3E705F11300F31C23F0030302
:1033000020F00300184480B29842BAD3FFF78CFC37
:1033100004460028B5D005441335002325F00305E5
:10332000456006814681036003739AE70720FFF733
:103330005DFD04460028A4D0002343600681468139
:10334000036007738DE7024B07494FF4C67248E7E5
:103350000D850008A8820008F27B0008383700209D
:10336000C38200080883000835830008F48200083F
:103370002DE9F8430D46044630B92E4B2E492F480F
:1033800040F2F31203F094FC237B032B06D9294B64
:103390002B492A4840F2F71203F08AFC2689AE42F4
:1033A00045D9244FDFF8A490DFF89080AE1B6389E5
:1033B0009D4219D8227B002A31D19D422FD0637BB8
:1033C0009B072CD46168091B2944204689B2FFF76A
:1033D000B3FB044618BB174B1A49184840F21D228C
:1033E00003F066FC6481FFDEED1A4FF6FE739E4229
:1033F000ADB206DD3B4640F20B224946404603F0A3
:1034000057FC2389334423812468002CCFD13B46C9
:1034100040F20F220C49404603F04AFCC7E72068FF
:103420006581258108B1FFF761FE00232360BDE8B7
:10343000F88300BF0D85000869850008F27B00084D
:1034400081850008C5850008AD8500089C850008B9
:103450000346002290B2013203B970471B68F9E7B6
:1034600058B1C38901339BB2C38133B9034B0449BB
:10347000044840F2393203F01BBC70470D85000848
:10348000E1850008F27B000870B50D46044600B1E6
:1034900069B9154B1549164840F24D32BDE87040E8
:1034A00003F006BC238929890B4423811446226832
:1034B000002AF7D1228963899A4206D00A4B0D4926
:1034C0000B4840F2553203F0F3FB236833B1064B4F
:1034D0000949074840F2563203F0EAFB2A8923895A
:1034E00025601344238170BD0D8500087483000896
:1034F000F27B0008A9830008D68300082DE9F84F65
:103500000C46054620B119B102890B899A420AD2AC
:10351000384B394940F2BD32384803F0C9FB6FF0EF
:103520000F00BDE8F88F4FF0000BDFF8C880DFF820
:10353000DCA0DFF8C8905F466E89638968686168BF
:10354000F61BA3EB0B039E42ACBF9EB2B6B2324653
:103550005944384403F099FB37446B89BFB25E4449
:10356000BB421FFA86FB06D2434640F2CD3251469B
:10357000484603F09DFB63895B4506D2434640F213
:10358000CE321F49484603F093FB63895B456B8944
:103590009CBF24684FF0000BBB421ED12D68DDB9E3
:1035A000BCB1144B17494FF47672B5E76289238991
:1035B0009A4214D1236893B10E4B40F2DE32124985
:1035C0000E4803F075FB6FF00500BDE8F88F002C86
:1035D000B2D12046BDE8F88F0027002CE6D16A89D9
:1035E0002B899A42F3D12B68002BF0D0014B40F28B
:1035F000E332E4E70D850008E6830008F27B00086B
:103600002D840008488400085584000816840008AA
:103610002DE9F0410F469046064650B91B4B1C4918
:103620001C4840F2FE3203F043FB35462846BDE815
:10363000F08169B10025B8F1000FF7D0002EF5D068
:103640007BB171898B420CD35B1A9BB23668F2E76F
:103650000E4B11490F4840F2FF3203F029FB3D4663
:10366000E4E774897168E41AA4B2444528BF44466B
:103670002246194478192544A8EB040403F005FBFD
:10368000ADB21FFA84F80023E0E700BF0D85000803
:103690007F840008F27B00089E84000810B5044671
:1036A00030B9134B1349144840F24D1203F000FB9C
:1036B000237D042B03D0072B0CD0032B08D12046ED
:1036C00002F094F988B905232375204602F0E6F943
:1036D000002010BD204602F089F930B90923F3E734
:1036E000A37E43F00803A376F2E7431CF8D010BD95
:1036F0004A86000879860008F27B000870470000BF
:1037000038B50446018DC36A628E456AC81AB2F59F
:10371000866F284494BF821AA0F58662002A01DBD6
:10372000618538BDEA1A002A02DD0020608538BDB7
:103730005D1BB5F5803F06D3044B054905484FF4A2
:10374000427203F0B5FA6585002038BD4A8600084C
:103750008C880008F27B000838B5037D012B0446F5
:103760000D4606D1174B184918484FF4487203F01C
:103770009FFA218D294489B2B1F5066F218511D9AF
:103780004FF4066323852046FFF7BAFFB0F5067FA6
:1037900017DBA37E43F00203A3762046BDE8384042
:1037A00002F07CB90029EED1237D072BE8D0092B4C
:1037B000E6D0044B0649054840F22D3203F078FA72
:1037C000E1E738BD4A860008F3860008F27B00086E
:1037D0001987000810B5044648B1406808B1FFF7E2
:1037E00085FC21460320BDE81040FFF71BBB10BD40
:1037F00010B500B910BD0468FFF7ECFF2046F8E7EC
:1038000038B504460320FFF7F1FA054660B12046BB
:103810002B4604F1100250F8041B43F8041B90429D
:10382000F9D16868FFF71CFE284638BD38B5037D1E
:10383000012B044619D90A2B17D0406F18B1FFF796
:1038400055FC00236367206FFFF7D2FF00254FF67A
:10385000FF732386A06E2567FFF7CAFFE06EFFF7B0
:10386000C7FFA566E566A4F8645038BD2DE9F04FA2
:10387000B04EDFF8F4A2336801333360AE4B1A78F0
:1038800085B001321A700293AC4FDFF8E0923C68C9
:103890004FF000086CB9AA4FDFF8D0823D68DFF81E
:1038A000D0A2DFF8A492002D40F0858105B0BDE8DC
:1038B000F08F237D33B94B464FF47C72A149A24867
:1038C00003F0F6F9237D012B06D14B4640F2F1328D
:1038D0009E499D4803F0ECF9237D0A2B06D14B4607
:1038E00040F2F2329A49984803F0E2F9029B627F73
:1038F0001B789A4204D1E5684446A0462C46C9E7A5
:10390000217D6377022994F8422002D1052A00F232
:10391000E6800B2A00F2E38094F895B0BBF1000F2B
:1039200000F0A6808B4894F8943083441BF8012C57
:103930009A4284BF013384F8943094F894309342CF
:1039400080F085804FF0000B237D062B0BD1A27EEB
:10395000D20608D53268216A521A282A84BF0BF190
:10396000010B5FFA8BFB257A15F0080519D0042BA3
:1039700002D0072B40F0C8803168236AD4F89050F9
:10398000C91A05F5242202F6B8424FF4FA70B2FBC8
:10399000F0F2914240F2A6800BF1010B5FFA8BFB33
:1039A0000125206F68B13368226A9A1AB4F9403051
:1039B00003EB4303B2EB430F03D3FFF719FF0023DD
:1039C0002367237D032B40F0A1803368226A9B1A72
:1039D000282B03D8BBF1000F00F0CC802046D4F890
:1039E0008CB0FFF723FF3B68B8F1000F00F0968022
:1039F0009C4206D14B4640F289425749524803F057
:103A000057F9E368C8F80C304DB1238B0193E38A72
:103A100000932246231D616AE06C02F0BDF9236920
:103A2000039321460120E568FFF7FCF900228AF89C
:103A30000020BBF1000F04D0039B6FF00C0118466F
:103A4000D8479AF80030002B3FF456AF1CE72046C9
:103A500002F092FA00287FF475AF94F8953084F85C
:103A60009400062B3FF66EAF013384F8953069E77A
:103A7000B4F93030002BA4BF01332386E36E002B52
:103A80003FF460AFB4F93000B4F940309842FFF62B
:103A900059AF02290AD0B4F93C10B4F93E3003EB17
:103AA000E1032E498A5C9340A4F840300023B4F827
:103AB00048202386B4F85C30618EA4F84810934205
:103AC00028BF13464A005B0892B29342A4F84A30DA
:103AD000204638BFA4F84A2002F0B8F934E74FF086
:103AE000010B31E794F896301D4A02FB0353B3FBF8
:103AF000F0F3994208D9204602F014FA20B994F85C
:103B00009630013384F8963000254AE7092B7FF47C
:103B100061AF3368226A9B1AF02B5AE79C4206D0A9
:103B20004B4640F28D420F49074803F0C1F8E36865
:103B30003B6069E744370020BE0100204037002089
:103B4000503700203A870008F27B0008648700089D
:103B50008E870008EC860008BB87000824860008D2
:103B6000F8240100E68700083C3700204A86000858
:103B700010880008E37E227FE5680133DBB29A42B9
:103B8000E3763FF6BAAED4F8883084F81BB08AF8F2
:103B900000B073B12146206998479AF80030002B95
:103BA0007FF472AE00287FF4A8AE204601F076FFC5
:103BB000A3E65846F1E72B7D0A2B06D0434640F298
:103BC000BD425146484603F073F833682A6A9B1A8F
:103BD000F02B16D82C46ED6865E63B689D4206D171
:103BE000434640F2CB421049484603F061F8EB6887
:103BF000E360D5F80CB029460120FFF713F95D46C4
:103C000051E62846FFF712FE002CE6D13B689D42A4
:103C100006D0434640F2CF420449484603F048F8F4
:103C2000EB683B60E5E700BF3F8800086688000856
:103C300003688B4210B50C4637D1CB680360002374
:103C4000E3602046FFF7F2FD237D0A2B0AD0012B0B
:103C500008D0A37EDA0705D543F00203A3762046F9
:103C600001F01CFF237D012B1AD0A36E33B1134B3F
:103C70001349144840F2537203F01AF8E36E33B15B
:103C80000E4B11490F4840F2547203F011F8236FA4
:103C900033B10A4B0D490B4840F2567203F008F855
:103CA00000232375E38210BD1346002BC7D0DA68CA
:103CB0009442F9D1E268DA60C1E700BF4A860008A1
:103CC000A4860008F27B0008BC860008D5860008A0
:103CD00037B5037D0446002949D0042B01D0072BBA
:103CE00045D1626F1AB9228DB2F5066F3FD0A37E1F
:103CF000DB0606D43F4B4049404840F20F1202F029
:103D0000D7FF238B0193E38A00932246231D616A28
:103D1000E06C02F041F82046FFF788FD384A13684E
:103D20009C4215D1E36813600023E360354B012208
:103D30001A70237D042B13D10A232375324B1A6882
:103D4000E2601C6002F0CAF9002003B030BD1346E7
:103D5000002BE9D0DA689442F9D1E268DA60E3E74F
:103D60002A4B1B689C4217D101F0FCFCECE7012BAD
:103D700020D007D3022B33D0204603B0BDE830401B
:103D8000FFF78CBCE38A3BB1214A13689C4209D1FE
:103D9000E36813600023E36021460120FFF742F847
:103DA000D2E71346002BF5D0DA689442F9D1E268E5
:103DB000DA60EFE71749002051F8232012684AB96A
:103DC0000133042BF8D121461348FFF731FF214678
:103DD0000220E3E7956FAC4208BF9067D268EEE738
:103DE00021460748FFF724FF064B012018702146A3
:103DF000D4E700BF4A86000831860008F27B00083D
:103E0000403700203C370020503700205437002036
:103E10004C3700209486000848370020037D012B92
:103E20001EBF837E43F0100383760121FFF750BF4E
:103E300010B5084614463AB11189FFF78DFC2046AB
:103E4000FFF754F9002010BD002BFBD1BDE8104056
:103E5000FFF7E4BFF8B5466FD0F88050777B0023BA
:103E600004464367DDB1014632460069A84705466E
:103E7000E0B9BB0611D5238DD4F88060B3F5066F89
:103E80001CBF0133238546B100231A462146206911
:103E9000B0470D3001D16FF00C052846F8BD014642
:103EA0002B4632462846FFF7C3FFE0E710F10D0529
:103EB000F1D066676FF00405EFE700002DE9F843E5
:103EC0001B4D1C4F2B781C4E01332B703C684FF060
:103ED00000080CB9BDE8F8832B78627F9A4224D0A1
:103EE0006377A37ED90709D543F00203A376204662
:103EF00001F0D4FDA37E23F00303A376A37E1A076B
:103F000005D523F00803A3762046FFF7C7FB636FB0
:103F1000D4F80C903BB1204686F80080FFF79AFF5A
:103F20003378002BD2D14C46D3E7D4F80C90FAE783
:103F3000BE010020403700203C37002008B5FFF7C5
:103F4000BDFF064A13780133DBB21370DB0703D5DC
:103F5000BDE80840FFF78ABC08BD00BFBD010020D6
:103F6000037D012B2DE9F34704460E4606D1304B65
:103F7000304931484FF4F07202F09AFE237D0A2B4B
:103F80000AD121462D48FFF753FE2146012002B0F9
:103F9000BDE8F047FEF746BFD4F84C90D4F824A013
:103FA000D4F88C70D4F81080E58A9BB93DB1244ACE
:103FB00013689C4206D1E36813600025E5602E4635
:103FC0000FE01346002BF8D0DA689442F9D1E2688A
:103FD000DA60F2E721461B48FFF72AFE1A4B01225E
:103FE0001A70E06E08B1FFF703FCA06E08B1FFF78E
:103FF000FFFB206F08B1FFF7FBFB46B1238B01935A
:104000000095231D22465146484601F0C5FE214633
:104010000120FEF707FF3FB16FF00C0140463B4621
:1040200002B0BDE8F047184702B0BDE8F08700BF16
:104030004A860008F3850008F27B0008503700200C
:104040004C370020403700203C3700200121FFF78B
:1040500087BF38B5054601B938BD0A682B68CC68FA
:104060009A4202D10846FFF7F1FF2146F3E700002C
:1040700038B5A0F10803012B044606D90F4B1049AF
:10408000104840F2DC5202F013FE0F4B19680F4B40
:1040900000221D68104621B970B1BDE83840FFF715
:1040A0005FBF0B7DA34205D10B6AEB1A9A429CBFFE
:1040B0001A460846C968EEE738BD00BF4A860008C0
:1040C00085860008F27B0008403700204437002036
:1040D000F8B506460120FEF789FE3B4D044690BB2D
:1040E0003A4B28681B682146002B58D114B1204652
:1040F000FFF7ACFF0120FEF779FE044618BB09204C
:10410000FFF7B6FF0120FEF771FE0446D8B908207C
:10411000FFF7AEFF0120FEF769FE044698B92C4B6D
:10412000D5F800E01B6816F0800F0CBF31467F21E8
:10413000002B3CD114B12046FFF788FF0120FEF789
:1041400055FE044648B398220021204602F0A8FDFF
:104150004FF4066262852285FF22A2724FF4067236
:1041600062860622A4F84020E2874FF6FF7222867C
:104170000122A4F848202A6822624FF48663154A77
:10418000A4F86030A4F84A30134B1278C4F8803099
:10419000124B66756277C4F890302046F8BD1A6AF3
:1041A000821A8A4224BF1C461146DB689CE75F7D69
:1041B0008F4207D81A6AAEEB0202824222BF39460A
:1041C00010461C46DB68B3E7443700205037002018
:1041D00040370020BE010020313E000800DD6D00A8
:1041E000034B044A1868126810441860704700BFF7
:1041F000080000204437002010B504460846FDF7AB
:10420000A9FE30B1438C23B1283B9BB29C4228BF0E
:104210001C46204610BD000038B50D46044680B14E
:10422000036873B10C4B1968FFF713FF0B4B204663
:104230001968FFF70EFF25B12B6813B1084B1B68F7
:1042400003B938BD18682168DA68884204BF296854
:1042500019601346F4E700BF403700204C370020B8
:10426000483700202DE9F041C368054698890C467F
:10427000FDF7DCF9C20715D4184EBCB1E768306809
:104280002B897968228903440A449A1A002A10DA91
:104290005B1A002B0ADD091A89B229816868FFF7C9
:1042A00067F803E02046FFF7A3FA00242C60BDE87E
:1042B000F081B889FDF7BAF9C30709D5D5F80C80A4
:1042C0000120B8F80C70FDF7B1F93843A8F80C00DC
:1042D00027682046FFF77EFA3C46CEE7E40100203F
:1042E000037D032B2DE9F74F044606D8874B8849F9
:1042F00088484FF4816202F0DBFC874B874E1B78C5
:1043000013F0100F00F07C81236D3068B4F85C204E
:10431000616D1D1A002D824D0DDB834203D12B6888
:10432000CB1A002B07DB2B6899421CD17D4B1B68F5
:10433000DB89934217D97B4BB4F85EE01B68DF89B9
:104340002065BE4528686065A4F85C7038BFA4F895
:104350005E7094F89500002F3CD120B984F89470D9
:10436000012384F895302B68D4F844E06E4FA3EB1A
:104370000E00002837DC6D480088002840F06F846C
:104380000A44606DB4F85C1001448A4240F06784CE
:10439000B4F93020002AC0F26284734540F05F8493
:1043A00094F84320531CDBB29A4238BF84F8433060
:1043B00094F84330032B11D9B4F84820638E13448A
:1043C0009BB29A4201D2A4F84830DFF840A1DFF84E
:1043D000449108E10028C6D00023C2E7F5D1204669
:1043E00001F079FDF1E7E26C9A1A002A00F38A8065
:1043F000A27EB4F93C006364510741BF22F004027D
:10440000A276B4F84A20A4F84820237DE28F002148
:1044100002EBE002032B84F84210A4F8402084F859
:1044200043100FD9B4F84820B4F84A309342638E51
:104430009CBF5B4393FBF2F313449BB29A4238BF99
:10444000A4F84830DFF8C490DFF8C8A0E36E43B9A1
:10445000E26E0023002A53D14FF6FF722286E376E4
:10446000B3E7DB685868FDF7E4F8E36EB3F808805B
:10447000DB6883469889FDF7D9F82B6810F00300B4
:10448000A8EB030818BF0120D8448044B8F1000FFE
:10449000DEDCD4F86C80B4F862B0D8F80030E366A3
:1044A000D8F80400FEF7D4FF834506D24B4640F20D
:1044B0009E421F49504602F0FBFBD8F80400FEF76D
:1044C000C7FFB4F862303A88181AB8F80830A4F870
:1044D0006200134440463B80FFF77CF9B4F8623039
:1044E000002BB3D0E36E002BB0D1A36E002BADD167
:1044F0004B4640F2A7420F49504602F0D9FBA5E7D0
:104500002386ACE7204601F093FA5EE75C8A000858
:104510008E8A0008F27B0008C4010020E40100201C
:10452000C0010020EC010020D8010020FA01002089
:10453000A78A0008CF8A00082A68DB6801925868B9
:10454000FDF777F8A36EB3F80880DB688346988997
:10455000FDF76CF8019A10F00300A2EB080818BFF1
:104560000120A8EB0B08A8EB0008B8F1000F3DDB19
:104570002B68E26C9B1A002B38DCD4F86880D8F8E2
:104580000030A3660BB9A4F86430D8F80400B4F87E
:1045900062B0FEF75DFF834506D2534640F2D54236
:1045A000BA49484602F084FBD8F80400FEF750FFF1
:1045B000B4F862303A88181AB8F80830A4F86200E3
:1045C000134440463B80FFF705F9B4F8623053B11D
:1045D000E36E43B9A36E33B9534640F2DD42AC49B2
:1045E000484602F065FBA36E002BA5D1B4F86030FD
:1045F0003A881344626BA4F86030002A40F01981B5
:10460000A44F626A3888002800F01C83237D062BA3
:1046100000F218833368D51A012D00F15C81C3F1D3
:104620000101091A1144002900F355819A4BD3F86E
:104630000490AA469846B9F1000F06D1974B9849C5
:10464000984840F23C5202F033FB47F6FE739D421D
:1046500006DD924B9449934840F23D5202F028FB0C
:10466000D8F8040043899D4240F32A8103899D4282
:1046700006DD8A4B8D498B4840F23F5202F018FB11
:10468000D8F8043019894D1BADB20022B9F80A30B0
:104690009A4500F3F280CAF1000109B24846FEF7DC
:1046A0001FFD30B17D4B40F24C5281497D4802F0F4
:1046B000FFFAB8F808103368626A32600B449B1A3C
:1046C000A8F80830D8F80C305A603168626A8B1A42
:1046D000002BC0F2B1824B1C208D9B1A1B1A002BA1
:1046E00000F3AA82914240F0C9816B4DEB68B5F8A6
:1046F00008809889FCF79AFF10F0030018BF01208A
:104700004044238D80B28342388042D2EB6898893E
:10471000FCF78CFFC20710D5D5F80C90B9F80C80C7
:104720004046FCF783FF00F03E00FCF77FFF28F4D3
:104730007C5840EA0808A9F80C80238D2B81EB688F
:104740009889FCF773FF830748BF2B89686844BFCB
:1047500003F1FF332B812989FEF70AFEEB68B5F8D8
:1047600008809889FCF762FF10F0030018BF012051
:104770003368626A404480B238801844238D134401
:10478000984206D0454B4B49464840F27F5202F0D2
:104790008FFA236F002B00F0AD80EB689889FCF74F
:1047A00045FFC00700F1A380D4F87080B8F1000F76
:1047B0003CD0D8F80CE030683B88DEF80420B8F82C
:1047C000081003441144591A002980F2CF809B1A23
:1047D000002B2BDDEB68121A2A819889FCF726FF43
:1047E000830748BF2B89686844BF03F1FF332B81DF
:1047F0002989FEF7BDFDEB68B5F808909889FCF7AC
:1048000015FF10F0030018BF01203368484480B240
:1048100038801844D8F80C305B68984206D01F4B9B
:104820002549204840F2AF5202F042FAC4F87080A5
:1048300060E0A36B29685B1A002BBFF6E1AE1F4B4B
:10484000B4F93C001968891AA1EBE00189B20BB2F6
:10485000002BB4F93E200844BCBF49420BB2A2EB86
:10486000A202134400B29BB2E38703EBE003A4F877
:1048700040300023A0876363C2E6A9F80850A9F876
:104880000A20AAEB030AD9F80090FFE6A78A0008DD
:10489000CF8A0008FA010020C80100205C8A0008C5
:1048A000EF8A0008F27B0008FF8A00080E8B0008E0
:1048B0001E8B0008318B0008688B000844370020ED
:1048C000694209B2FEF70CFC00283FF4F2AE9C4BA3
:1048D00040F25152E9E69B1A002BBEBFA37E43F083
:1048E0000203A376F1E603682367FEF773FF206FE8
:1048F0000028F8D13A88336813446362238D9342C9
:1049000006D28F4B8F49904840F2B95202F0D0F94D
:10491000238D3A889B1A23852046FEF7F1FE6B68AB
:104920001A891AB1894A136000236B60EB68844FBF
:104930009889DFF82482DFF81092FCF777FEC5072C
:1049400041BF834A137843F020031370256F25B1CC
:10495000EA68616A53688B4233D0A37ED90740F17D
:10496000878023F0010343F0020383E0BEF80C00CC
:10497000FCF75CFEC1071DD5EB689889FCF756FE75
:10498000820717D4D5F80CA00120BAF80C90FCF7D8
:104990004DFEEB6849EA0000AAF80C009889B5F8CA
:1049A0000890FCF743FE10F0030018BF012081447B
:1049B000A7F80090D8F800904046FEF70BFFC846D5
:1049C000F4E633609089B5F808A0FCF72FFE636A1F
:1049D000B5F808B010F0030018BF01209A44504405
:1049E000EB6860629889B4F828A0FCF71FFE10F00D
:1049F000030018BF01205844824506D23B4640F2CE
:104A0000DE524146484602F053F9EB68B5F808A07B
:104A10009889FCF70BFE10F00300238D18BF0120CE
:104A20005044181A20852046FEF76AFE69680B89F3
:104A300033B1464B1868C8B1FEF726FD00236B6002
:104A4000EB689889FCF7F2FDC00709D5404A137856
:104A500043F020031370237D042B04BF0723237529
:104A60002B6823672846FEF7B5FE6FE71960E5E778
:104A700043F00103A37603B0BDE8F08F204600F0B9
:104A8000D7FF256F25B93348FEF7BAFE2067F2E756
:104A900033684FF0000803F1FF3E03F1010CE868B2
:104AA00042689A4217D12B482B8902899A42E2D94F
:104AB000FEF7A6FE0028DED0B8F1000F09D0C8F836
:104AC0000000294603B0BDE8F04FFFF7CBBB0D4611
:104AD000E5E72067F5E7B8F1000F09D1991A002939
:104AE0003CDA1C48FEF78CFE0028C4D02067E8E7BB
:104AF000D8F80C104968AEEB010100292EDBACEBB5
:104B0000020100292ADC1348FEF77AFE0446002839
:104B1000B1D0D8F80C3031685A68B8F8083013446E
:104B20005B1A002B07DD891A89B2A8F80810D8F89B
:104B30000400FEF71DFCC8F8004029462046C1E7E6
:104B40005C8A0008A38B0008F27B0008DC010020CF
:104B5000E0010020C8010020C28B00082968A84697
:104B60000029B4D19B1A002B85DD8089FCF75EFDFE
:104B7000C20780D43C48FEF743FE286000283FF47B
:104B80007AAFEB6831685A682B8913445B1A002BA3
:104B900005DD891A89B229816868FEF7E9FB326868
:104BA0003B881344626A9B1A228D9B1A002B7FF765
:104BB00062AF2B68DB689889FCF738FDC30711D515
:104BC0002B68D3F80C90B9F80C804046FCF72EFD0A
:104BD00000F03E00FCF72AFD28F47C5840EA080863
:104BE000A9F80C803268218D2B68891A626A58688E
:104BF000114489B21981FEF7BBFB2B681D89DB6864
:104C00009889FCF713FD10F0030018BF01203368EA
:104C1000626A284480B238801844238D1344984235
:104C20003FF429AF114B1249124840F27B6203B0A6
:104C3000BDE8F04F02F03CB8204603B0BDE8F04FAD
:104C400000F0F6BE3368991A002906DB01339B1A7F
:104C5000228D9B1A002B7FF70EAFA37E83E60023E5
:104C600084F84330FFF7B1BBC80100205C8A00081C
:104C7000318B0008F27B00080B4B0C4A196810B509
:104C800021B10B4813880088834207D2094B118851
:104C90001B680B44481C1080187D10BD5C1C1B1A3F
:104CA000DBB21480C85C10BDF4010020E8010020D4
:104CB000F0010020EC010020F8B5194D194E002339
:104CC00007462B8034882B88A34200D3F8BDFFF71A
:104CD000D3FF0128F6D0F9D3022817D1FFF7CCFF74
:104CE0000428F3D12B880133A342EFDAFFF7C4FF86
:104CF000000284B2FFF7C0FF204380B2431EB3F529
:104D0000067F28BF4FF406703880DBE7FFF7B4FF5B
:104D10000128DBD92B88023B18442880D2E700BF4A
:104D2000E8010020F801002010B50D4B044618786A
:104D300010F0100012D0A37EDB0606D4D4F88C301D
:104D40001BB16FF00E012069984721460548FEF718
:104D50006FFF01202146FEF765F8012010BD00BF5E
:104D6000E0010020403700202DE9F04F9F4E4368BE
:104D700033604389132B89B0054640F2B2819C4FC2
:104D800039687869FDF75DFAB8460446002840F0B6
:104D9000A8817B6903F0F003E02B00F0A281336867
:104DA0009889FCF743FC810A01F0FC01132940F2C9
:104DB00098812B8989B28B42C0F0938168898D4A92
:104DC0008D4F0692A1F114039BB288423C60138080
:104DD0008A4C44D3494228462380FEF781F934683F
:104DE000DFF86CB22088864FFCF720FC2080346806
:104DF0006088FCF71BFC608034686068FCF719FC75
:104E000060603468CBF80000A068FCF712FCA0607A
:104E100034683860E089FCF709FC3368E0819889E0
:104E2000FCF704FCC0B200F03F032989754A0392E5
:104E300010F0030018BF0120084473491370734B2E
:104E40000C6818804FF0000A04938946002C40D16A
:104E50006F4BDFF8C0A11C68DFF8F89148E12B68C0
:104E60002BB96C4B6C496D48B22201F021FF6FF0F9
:104E700013012846FEF734F9069B698921801C88B6
:104E8000641A494209B22846FEF72AF9286843897C
:104E9000A4B2A342C0F02581614243683B6009B2DD
:104EA000FEF71EF92B891C1B6B892C812BB1594BEA
:104EB0005B495A48CF2201F0FBFE2B682A891B89E7
:104EC0009A428CD0534B57495448D02201F0F0FEFF
:104ED00085E7237D2BB94F4B53495048E22201F01F
:104EE000E7FE237D0A2B05D14A4B50494B48E3226C
:104EF00001F0DEFE237D012B05D1464B4C4947488E
:104F0000E42201F0D5FE3268218B13889942E368D0
:104F100069D1E18A5288914265D16168D8F8102040
:104F2000914260D12168D8F8142091425BD19C4213
:104F300040F00684374B3F493848EC2201F0B8FE78
:104F4000BAF1000F07D0E368CAF80C30D9F8003086
:104F5000E360C9F80040E3689C4205D12D4B364917
:104F60002E48F42201F0A4FE344B29891981002235
:104F700031681A60D960324832495D60324B027044
:104F80001A600A80039A0591127812F0080F804681
:104F90009A4603D06B7B43F001036B73636F2B4D19
:104FA000002B00F037812046FEF754FF0D3008D06B
:104FB000636F002B00F02E81049B1B88002B00F0F8
:104FC0002981638D13B9204600F032FD00242C6046
:104FD0001A4DCAF80040686810B1FEF787F86C6097
:104FE00009B0BDE8F08FA2461C462FE7EC01002077
:104FF00018020020F8010020F4010020F001002038
:10500000C0010020C401002040370020FA01002028
:10501000503700205C8A0008A6880008F27B000850
:10502000B6880008C2880008E188000808890008DE
:10503000328900085989000884890008C8010020C5
:10504000E0010020D8010020DC01002054370020BE
:10505000E4010020AE890008237D0A2B05D05346C9
:10506000FE2249469D4801F023FE3368228B1888B2
:1050700090423CD1E18A5A888A4238D16168D8F896
:105080001030994233D12168D8F8143099422ED18A
:10509000039B1B78590724D49E0713D5DBF8001017
:1050A000636ACB1A13D4268D9B1B002B0FDC049B49
:1050B0001C88019000928A4B21441A1D386800F028
:1050C0006BFE0EE0D80742BF864B1B682362049B31
:1050D0001B8833B1A37E43F00203A376204600F081
:1050E000DDFC284609B0BDE8F04FFDF7FFBFE468DE
:1050F000002CB1D17C4B32681968D8F814E089468D
:10510000B9F1000F11D19089FCF790FA4307E8D468
:105110003368049ADBF8001010881A8801925B88C3
:1051200000936F4B01441A1DC8E7B9F81600538865
:10513000834207D1D9F80030734500F0DD82002B9F
:1051400000F0DA824C46D9F80C90D9E79807C8D518
:1051500099F81500FEF7BCFF044650B9D9F818308D
:10516000002BBED001464FF0FF32D9F8100098470F
:10517000B7E7D8F8143032680360D8F810304360CD
:10518000B9F81630C3821378527843EA02230383B6
:1051900003230375DBF8003001334362C362FFF77A
:1051A0001FF8DBF800306065013B2365D9F810304B
:1051B000E0646064A0652361C4F8789099F80830D1
:1051C00003F00C032372494B1A68E2601C6000F084
:1051D00085FF474B01221A70069B1B881BB104F107
:1051E0003200FFF769FD3368608EDB89A4F85C301C
:1051F000211DA4F85E30FEF7FFFF122160862046D5
:1052000000F05CFB00283FF469AF00212046FEF768
:10521000A7FE66E7039B2C601B78590735D5217DD7
:10522000022922D1E26C3B689A4209D198F80030F9
:1052300043F0080388F80030A37E23F00103A3762F
:1052400098F80030190740F1ED81D4F88C301BB18B
:105250006FF00D012069984721462448FEF7E8FCCD
:1052600021460120FDF7DEFDB0E6626ADBF8003082
:105270009A4200F05A829B1AE2D4228D9B1A002B8C
:10528000DEDCA37E43F00203D9E713F0020103D072
:10529000227D023A012AF4D8A27ED2065EBF114ACC
:1052A00012682262002284F89620069A12883AB187
:1052B00004F1320007910693FFF7FEFC0799069B65
:1052C000227D023A072ABBD8DFE812F014009400CE
:1052D000FC0000014A01FC0064018301F27B00082C
:1052E00028020020443700204837002040370020A3
:1052F0003C37002003F01202122A5ED1626C39683A
:1053000001328A4259D1DBF800306264591C32689C
:105310006162E162013BD28923650423A4F85C2029
:10532000A4F85E202375E118608EFEF765FF41F258
:105330001C124300934238BF1346608680008342AC
:1053400028BF0346A4F84830B4F8623033B9AD4BF7
:10535000AD49AE4840F21A3201F0AAFCB4F862300E
:10536000E66E013BA4F86230FEB9A66E36B9A54BD5
:10537000A749A64840F2223201F09AFC3368A3669E
:105380003046FEF727FAE36E93B94FF6FF73238694
:10539000D4F88430002B3FF474AF002221462069FA
:1053A00098470D307FF46DAF10E63368E366E7E7AA
:1053B0000023238684F84230EAE7DB067FF540AF1E
:1053C0003368049ADBF8001010881A8801925B8811
:1053D0000093904B01441A1D386800F0DDFC94F8EE
:1053E0004230052B3FF62CAF00232386204600F0E9
:1053F0002DFD25E7D80657D5636C3868DB43C342DB
:1054000043D4E36CC31A002B3FDC04232375A36F42
:1054100043B19B6933B97B4B7F497C4840F25132A1
:1054200001F046FCA36F1BB92046FEF70FFECDE549
:105430009B69002BF8D0002221462069984710B1C3
:105440000D30F1D1C2E52046FEF74AFF059B1B88CF
:1054500013B1059A013B1380628E41F21C11530077
:105460008B4238BF0B469200934228BF1346A4F8E4
:10547000483098F800309A067FF5E2AEA37E43F0FC
:105480000203A37607232375DAE63368049ADBF870
:10549000001016881A8801925B8800935D4B314496
:1054A0001A1D00F079FCCBE600293FF4C9AE636A0F
:1054B000DBF80020013B93427FF4C2AE204600F0AF
:1054C000E1FCBDE62046FEF70BFFD2E72046FEF7E3
:1054D00007FF98F8003013F0200F039B1B7831D0A2
:1054E00013F0100FA37E28D0E16C3A68914224D1CA
:1054F000A26E12BB43F00203A3762046FEF796F994
:10550000D9F800309C420AD1E368C9F8003008E0BD
:10551000DA68944202D1E268DA6002E01346002BB6
:10552000F6D13E4B01221A700A2323753C4B1A68B0
:10553000E2601C6000F0D2FD82E643F00203A37635
:105540000823A0E7DB067FF57BAEE26C3B689A425E
:105550007FF476AEA36E002B7FF472AE062392E743
:105560002046FEF7BDFE98F800309F067FF568AE36
:10557000A37E43F00203A3762046FEF757F9D9F83D
:1055800000309C42C0D0002BCBD0DA689442C2D00D
:105590001346F8E72046FEF7A3FE039B1B78DE06C2
:1055A0007FF54EAEE26C3B689A427FF449AEA36E43
:1055B000002B7FF445AE2046FEF738F9D9F80030CD
:1055C0009C42A1D0002BACD0DA689442A3D0134601
:1055D000F8E72046FEF784FE039B1B78D8067FF58C
:1055E0002FAEE26C3B689A427FF42AAEA36E002B8A
:1055F0007FF426AE98F8003043F0100388F80030AE
:105600001EE600BF5C8A0008FB890008F27B0008E8
:10561000118A000828020020248A00083C37002054
:1056200050370020059B1A8822B1E36FEBB9059A29
:10563000002313802046FFF777FB00287FF4C6ACD9
:10564000DAF800303BB3636F33B1404B4049414817
:105650004FF4D27201F02CFBA37E13F010030AD09A
:10566000DAF80000FDF742FDDEE6214620699847A2
:105670000D30DCD1AAE4D4F880601EB3DAF8002043
:1056800020692146B04710F10D0F3FF49FAC10B1D7
:10569000DAF80030636798F800309A0605D5636F32
:1056A000C3B15A7B42F020025A732B4B0022204692
:1056B0001A60FFF739FB00287FF488AC204600F021
:1056C000EDF983E43346DAF8002021463046FEF750
:1056D000AFFBD8E7238DD4F88060B3F5066F1CBF0D
:1056E00001332385002EE0D000231A46214620698D
:1056F000B0470D30D9D169E43CB1D9F80C30E36042
:10570000164BC9F80C10C3F80090039B1B7859077F
:105710003FF5E7ACDC067FF519AD049BDBF8001024
:105720001C8813888DE80900C5E400297FF47EAD4C
:10573000064B0B49074840F2E72201F0B9FA75E53C
:10574000BAF1000F7FF4FFAB0EE400BF5C8A0008E3
:10575000428A0008F27B00085437002048370020B6
:10576000DB890008024A137843F010031370704776
:10577000E00100202DE9F0479DF820A080461AF0B6
:10578000010F4FF003000F461646994614BF04253B
:105790000025FDF72BFB044628B93846FDF7A6FC8B
:1057A0002046BDE8F08780F80AA0002380E8880042
:1057B0003B891FFA85FA534505D21F4B1F492048E4
:1057C000BA2201F075FA3B89A3EB0A03384623811C
:1057D0001421FDF785FC074620B12046FDF7FAFFAE
:1057E0000024DDE76368B8F81600D3F804A0C4F815
:1057F0000CA0FBF71BFFAAF80000B8F81800D4F8BB
:105800000CA0FBF713FFAAF802004846D4F80C805E
:10581000AD08FBF70EFF053546EA0535C8F804006C
:10582000A8B2D4F80C80FBF701FFE368A8F80C00DD
:105830009F74DF74B4E700BF5F8D0008E78B00083A
:10584000F27B00081431F8B589B2054617460120ED
:105850000022FDF7ADFC064640B34389132B05DC5F
:10586000134B14491448732201F022FAE88A746831
:10587000FBF7DCFE2080288BFBF7D8FE676060809A
:10588000686AFBF7D6FEA06045F21000FBF7CEFE7B
:10589000A081688DFBF7CAFE002323746374A37490
:1058A000E3746A8D6B6AE0811344EB623046F8BDA5
:1058B0005F8D0008318D0008F27B00082DE9F74369
:1058C00011F0030804460E4606D1414B41494248B7
:1058D00040F21B3201F0ECF9B4F86230082B0AD91F
:1058E000F10708D4A37E63F07F03A3764FF0FF3067
:1058F00003B0BDE8F08306F00203002B14BF0427B9
:1059000000274FF000023946104614BF4FF001093E
:105910004FF00009FDF74CFC05460028E2D0438912
:10592000BB4206D22A4B2D492B4840F2413201F0AE
:10593000BFF9CDF800902946A36D32462046FFF707
:1059400019FF05460028CDD0C3689A0706D0204B22
:105950002349214840F2493201F0AAF92B8933B199
:105960001B4B20491C4840F24A3201F0A1F9A36EBA
:105970004BBBA5660023A4F86430B8F1000F02D039
:10598000A36D0133A365F30742BFA37E43F0200359
:10599000A3766868FDF75CFDB4F86230184480B205
:1059A000A4F862000028A3D0E06E48B9A46E002CD1
:1059B0009ED1074B0C49084840F26D3201F078F94E
:1059C000002095E713461A68002AFBD11D60D1E735
:1059D0005F8D0008FC8B0008F27B0008518C0008EA
:1059E0008A8C0008A28C0008CC8C0008F8B5846E64
:1059F000054634B928460121BDE8F840FFF75EBFEF
:105A00001C462368002BFBD1E3689889FBF70EFE48
:105A100010F00707EED1E6680120B489FBF706FE17
:105A20002043B081AB7E43F02003AB763846F8BD0F
:105A30007FB50446C06CFBF7FCFD00210246204602
:105A4000FFF700FF064640B9A37E43F00303A376A9
:105A50006FF00105284604B070BD251D2846FCF7EF
:105A600079FAA0B106220192627A02900092A37A9A
:105A70002A4621463046FCF7D3FB05463046FDF763
:105A800035FBA37E35B143F00303A376E2E76FF065
:105A90000305F3E723F00303F7E700002DE9F04FD8
:105AA000037D012B87B0044606D1A54BA549A64826
:105AB00040F2ED3201F0FCF8A44B1B689C4252D03E
:105AC000B4F84830B4F85C70A56E9F4228BF1F46FA
:105AD000A37E990710D52DB9204607B0BDE8F04F39
